{
  "_format": "hh-sol-artifact-1",
  "contractName": "ETHMixup",
  "sourceName": "contracts/ETHMixup.sol",
  "abi": [
    {
      "inputs": [
        {
          "internalType": "contract IVerifier",
          "name": "_verifier",
          "type": "address"
        },
        {
          "internalType": "address",
          "name": "_hasher",
          "type": "address"
        },
        {
          "internalType": "uint256",
          "name": "_denomination",
          "type": "uint256"
        },
        {
          "internalType": "uint32",
          "name": "_merkleTreeHeight",
          "type": "uint32"
        }
      ],
      "stateMutability": "nonpayable",
      "type": "constructor"
    },
    {
      "anonymous": false,
      "inputs": [
        {
          "indexed": true,
          "internalType": "uint256",
          "name": "commitment",
          "type": "uint256"
        },
        {
          "indexed": false,
          "internalType": "uint32",
          "name": "leafIndex",
          "type": "uint32"
        },
        {
          "indexed": false,
          "internalType": "uint256",
          "name": "timestamp",
          "type": "uint256"
        }
      ],
      "name": "Deposit",
      "type": "event"
    },
    {
      "anonymous": false,
      "inputs": [
        {
          "indexed": false,
          "internalType": "address",
          "name": "to",
          "type": "address"
        },
        {
          "indexed": false,
          "internalType": "uint256",
          "name": "nullifierHash",
          "type": "uint256"
        }
      ],
      "name": "Withdrawal",
      "type": "event"
    },
    {
      "inputs": [],
      "name": "FIELD_SIZE",
      "outputs": [
        {
          "internalType": "uint256",
          "name": "",
          "type": "uint256"
        }
      ],
      "stateMutability": "view",
      "type": "function"
    },
    {
      "inputs": [],
      "name": "ROOT_HISTORY_SIZE",
      "outputs": [
        {
          "internalType": "uint32",
          "name": "",
          "type": "uint32"
        }
      ],
      "stateMutability": "view",
      "type": "function"
    },
    {
      "inputs": [
        {
          "internalType": "uint256",
          "name": "",
          "type": "uint256"
        }
      ],
      "name": "commitments",
      "outputs": [
        {
          "internalType": "bool",
          "name": "",
          "type": "bool"
        }
      ],
      "stateMutability": "view",
      "type": "function"
    },
    {
      "inputs": [],
      "name": "denomination",
      "outputs": [
        {
          "internalType": "uint256",
          "name": "",
          "type": "uint256"
        }
      ],
      "stateMutability": "view",
      "type": "function"
    },
    {
      "inputs": [
        {
          "internalType": "uint256",
          "name": "_commitment",
          "type": "uint256"
        }
      ],
      "name": "deposit",
      "outputs": [],
      "stateMutability": "payable",
      "type": "function"
    },
    {
      "inputs": [],
      "name": "getLeavesLength",
      "outputs": [
        {
          "internalType": "uint256",
          "name": "",
          "type": "uint256"
        }
      ],
      "stateMutability": "view",
      "type": "function"
    },
    {
      "inputs": [],
      "name": "hasher",
      "outputs": [
        {
          "internalType": "contract IPoseidonHasher",
          "name": "",
          "type": "address"
        }
      ],
      "stateMutability": "view",
      "type": "function"
    },
    {
      "inputs": [],
      "name": "index",
      "outputs": [
        {
          "internalType": "uint32",
          "name": "",
          "type": "uint32"
        }
      ],
      "stateMutability": "view",
      "type": "function"
    },
    {
      "inputs": [
        {
          "internalType": "uint256",
          "name": "root",
          "type": "uint256"
        }
      ],
      "name": "isKnownRoot",
      "outputs": [
        {
          "internalType": "bool",
          "name": "",
          "type": "bool"
        }
      ],
      "stateMutability": "view",
      "type": "function"
    },
    {
      "inputs": [
        {
          "internalType": "uint256",
          "name": "_nullifierHash",
          "type": "uint256"
        }
      ],
      "name": "isSpent",
      "outputs": [
        {
          "internalType": "bool",
          "name": "",
          "type": "bool"
        }
      ],
      "stateMutability": "view",
      "type": "function"
    },
    {
      "inputs": [
        {
          "internalType": "uint256[]",
          "name": "_nullifierHashes",
          "type": "uint256[]"
        }
      ],
      "name": "isSpentArray",
      "outputs": [
        {
          "internalType": "bool[]",
          "name": "spent",
          "type": "bool[]"
        }
      ],
      "stateMutability": "view",
      "type": "function"
    },
    {
      "inputs": [
        {
          "internalType": "uint256",
          "name": "",
          "type": "uint256"
        }
      ],
      "name": "leaves",
      "outputs": [
        {
          "internalType": "uint256",
          "name": "",
          "type": "uint256"
        }
      ],
      "stateMutability": "view",
      "type": "function"
    },
    {
      "inputs": [
        {
          "internalType": "uint32",
          "name": "",
          "type": "uint32"
        }
      ],
      "name": "levelHashes",
      "outputs": [
        {
          "internalType": "uint256",
          "name": "",
          "type": "uint256"
        }
      ],
      "stateMutability": "view",
      "type": "function"
    },
    {
      "inputs": [],
      "name": "levels",
      "outputs": [
        {
          "internalType": "uint32",
          "name": "",
          "type": "uint32"
        }
      ],
      "stateMutability": "view",
      "type": "function"
    },
    {
      "inputs": [],
      "name": "maxSize",
      "outputs": [
        {
          "internalType": "uint32",
          "name": "",
          "type": "uint32"
        }
      ],
      "stateMutability": "view",
      "type": "function"
    },
    {
      "inputs": [
        {
          "internalType": "uint256",
          "name": "",
          "type": "uint256"
        }
      ],
      "name": "nullifierHashes",
      "outputs": [
        {
          "internalType": "bool",
          "name": "",
          "type": "bool"
        }
      ],
      "stateMutability": "view",
      "type": "function"
    },
    {
      "inputs": [
        {
          "internalType": "uint256",
          "name": "",
          "type": "uint256"
        }
      ],
      "name": "roots",
      "outputs": [
        {
          "internalType": "uint256",
          "name": "",
          "type": "uint256"
        }
      ],
      "stateMutability": "view",
      "type": "function"
    },
    {
      "inputs": [],
      "name": "verifier",
      "outputs": [
        {
          "internalType": "contract IVerifier",
          "name": "",
          "type": "address"
        }
      ],
      "stateMutability": "view",
      "type": "function"
    },
    {
      "inputs": [
        {
          "internalType": "uint256[2]",
          "name": "a",
          "type": "uint256[2]"
        },
        {
          "internalType": "uint256[2][2]",
          "name": "b",
          "type": "uint256[2][2]"
        },
        {
          "internalType": "uint256[2]",
          "name": "c",
          "type": "uint256[2]"
        },
        {
          "internalType": "uint256",
          "name": "_root",
          "type": "uint256"
        },
        {
          "internalType": "uint256",
          "name": "_nullifierHash",
          "type": "uint256"
        },
        {
          "internalType": "address payable",
          "name": "_recipient",
          "type": "address"
        }
      ],
      "name": "withdraw",
      "outputs": [],
      "stateMutability": "payable",
      "type": "function"
    },
    {
      "inputs": [
        {
          "internalType": "uint256",
          "name": "i",
          "type": "uint256"
        }
      ],
      "name": "zeros",
      "outputs": [
        {
          "internalType": "uint256",
          "name": "",
          "type": "uint256"
        }
      ],
      "stateMutability": "pure",
      "type": "function"
    }
  ],
  "bytecode": "0x60e060405260008060046101000a81548163ffffffff021916908363ffffffff1602179055503480156200003257600080fd5b5060405162002eb438038062002eb4833981810160405281019062000058919062000524565b83838383808360008263ffffffff1611620000aa576040517f08c379a0000000000000000000000000000000000000000000000000000000008152600401620000a19062000670565b60405180910390fd5b600a8263ffffffff161115620000f7576040517f08c379a0000000000000000000000000000000000000000000000000000000008152600401620000ee906200064e565b60405180910390fd5b816000806101000a81548163ffffffff021916908363ffffffff1602179055508073ffffffffffffffffffffffffffffffffffffffff1660808173ffffffffffffffffffffffffffffffffffffffff1660601b8152505060008054906101000a900463ffffffff1660026200016d919062000720565b63ffffffff1660a08163ffffffff1660e01b8152505060005b8263ffffffff168163ffffffff161015620001eb57620001b28163ffffffff166200028860201b60201c565b600160008363ffffffff1663ffffffff168152602001908152602001600020819055508080620001e290620008a3565b91505062000186565b5050506001600481905550600082116200023c576040517f08c379a000000000000000000000000000000000000000000000000000000000815260040162000233906200062c565b60405180910390fd5b8373ffffffffffffffffffffffffffffffffffffffff1660c08173ffffffffffffffffffffffffffffffffffffffff1660601b8152505081600581905550505050505050505062000a69565b600080821415620002bc577f1b47eebd31a8cdbc109d42a60ae2f77d3916fdf63e1d6d3c9614c84c665876169050620004c3565b6001821415620002ef577f0998c45a8df60690d2142a1e29541e4c5203c5f0039e1f736a48a4ea3939996c9050620004c3565b600282141562000322577f1b8525aeb12de720fbc32b7a5b505efc1bd4396e223644aed9d48c4ecc5a64519050620004c3565b600382141562000355577f1937e198ced295751ebf9996ad4429473bb657521a76f372ab62eab9dd09f7299050620004c3565b600482141562000388577f043fae75b0a1c6cfe6bbd4a260fc421f26cd352974d31d3627896a677f3931a39050620004c3565b6005821415620003ba577e7c68bad132df37627c5fa5e1c06601d5af97124b0bd19f6e29593e1814ae519050620004c3565b6006821415620003ed577f2aca3ddb1f0c22cd53383b85231c1a10634f160ce945c639b2b799ed8b37f5ae9050620004c3565b600782141562000420577f037ca32d66c15af3f7cb3cbc7d5b0fad9104582d24416fdd85c50586d3079a0e9050620004c3565b600882141562000453577f1c9e22b869e38db54e772baa9a4765b9ccb1ea458ea4a50c3ce9ce5152a955819050620004c3565b600982141562000486577f283f3963c14e4a1873557637cf74773b5de1d3dcafa8c2c82f18720fabd5e0f99050620004c3565b6040517f08c379a0000000000000000000000000000000000000000000000000000000008152600401620004ba9062000692565b60405180910390fd5b919050565b600081519050620004d98162000a01565b92915050565b600081519050620004f08162000a1b565b92915050565b600081519050620005078162000a35565b92915050565b6000815190506200051e8162000a4f565b92915050565b600080600080608085870312156200053b57600080fd5b60006200054b87828801620004df565b94505060206200055e87828801620004c8565b93505060406200057187828801620004f6565b925050606062000584878288016200050d565b91505092959194509250565b60006200059f602c83620006b4565b9150620005ac8262000911565b604082019050919050565b6000620005c6602583620006b4565b9150620005d38262000960565b604082019050919050565b6000620005ed602083620006b4565b9150620005fa82620009af565b602082019050919050565b600062000614601383620006b4565b91506200062182620009d8565b602082019050919050565b60006020820190508181036000830152620006478162000590565b9050919050565b600060208201905081810360008301526200066981620005b7565b9050919050565b600060208201905081810360008301526200068b81620005de565b9050919050565b60006020820190508181036000830152620006ad8162000605565b9050919050565b600082825260208201905092915050565b6000808291508390505b60018511156200071757808604811115620006ef57620006ee620008d5565b5b6001851615620006ff5780820291505b80810290506200070f8562000904565b9450620006cf565b94509492505050565b60006200072d8262000893565b91506200073a8362000893565b92506200074d63ffffffff848462000755565b905092915050565b6000826200076757600190506200083a565b816200077757600090506200083a565b81600181146200079057600281146200079b57620007d1565b60019150506200083a565b60ff841115620007b057620007af620008d5565b5b8360020a915084821115620007ca57620007c9620008d5565b5b506200083a565b5060208310610133831016604e8410600b84101617156200080b5782820a905083811115620008055762000804620008d5565b5b6200083a565b6200081a8484846001620006c5565b92509050818404811115620008345762000833620008d5565b5b81810290505b9392505050565b60006200084e8262000869565b9050919050565b6000620008628262000841565b9050919050565b600073ffffffffffffffffffffffffffffffffffffffff82169050919050565b6000819050919050565b600063ffffffff82169050919050565b6000620008b08262000893565b915063ffffffff821415620008ca57620008c9620008d5565b5b600182019050919050565b7f4e487b7100000000000000000000000000000000000000000000000000000000600052601160045260246000fd5b60008160011c9050919050565b7f4d697875703a2044656e6f6d696e6174696f6e2073686f756c6420626520677260008201527f6561746572207468616e20300000000000000000000000000000000000000000602082015250565b7f5f6c6576656c732073686f756c64206e6f74206265206772656174657220746860008201527f616e203130000000000000000000000000000000000000000000000000000000602082015250565b7f5f6c6576656c732073686f756c642062652067726561746572207468616e2030600082015250565b7f496e646578206f7574206f6620626f756e647300000000000000000000000000600082015250565b62000a0c8162000841565b811462000a1857600080fd5b50565b62000a268162000855565b811462000a3257600080fd5b50565b62000a408162000889565b811462000a4c57600080fd5b50565b62000a5a8162000893565b811462000a6657600080fd5b50565b60805160601c60a05160e01c60c05160601c6123fd62000ab76000396000818161056001526109490152600081816105260152610e54015260008181610e2e015261102301526123fd6000f3fe60806040526004361061011f5760003560e01c80638bca6d16116100a0578063d455a79d11610064578063d455a79d14610406578063e2dd341114610443578063e82955881461045f578063ea65ba491461049c578063ed33639f146104d95761011f565b80638bca6d161461031a578063a6232a9314610345578063b6b55f2514610382578063c2b40ae41461039e578063cd87a3b4146103db5761011f565b806349ce8997116100e757806349ce89971461020d5780634ecf518b1461024a5780635a129efe14610275578063649eca44146102b25780637aa14932146102ef5761011f565b80631f79a1e9146101245780632565b159146101615780632986c0e51461018c5780632b7ac3f3146101b7578063414a37ba146101e2575b600080fd5b34801561013057600080fd5b5061014b600480360381019061014691906115a7565b610504565b6040516101589190611aab565b60405180910390f35b34801561016d57600080fd5b50610176610524565b6040516101839190611c77565b60405180910390f35b34801561019857600080fd5b506101a1610548565b6040516101ae9190611c77565b60405180910390f35b3480156101c357600080fd5b506101cc61055e565b6040516101d99190611ae1565b60405180910390f35b3480156101ee57600080fd5b506101f7610582565b6040516102049190611c5c565b60405180910390f35b34801561021957600080fd5b50610234600480360381019061022f91906115a7565b6105a6565b6040516102419190611aab565b60405180910390f35b34801561025657600080fd5b5061025f6105c6565b60405161026c9190611c77565b60405180910390f35b34801561028157600080fd5b5061029c600480360381019061029791906115a7565b6105da565b6040516102a99190611aab565b60405180910390f35b3480156102be57600080fd5b506102d960048036038101906102d491906115f9565b610604565b6040516102e69190611c5c565b60405180910390f35b3480156102fb57600080fd5b5061030461061c565b6040516103119190611c5c565b60405180910390f35b34801561032657600080fd5b5061032f610629565b60405161033c9190611c5c565b60405180910390f35b34801561035157600080fd5b5061036c600480360381019061036791906115a7565b61062f565b6040516103799190611aab565b60405180910390f35b61039c600480360381019061039791906115a7565b6106d9565b005b3480156103aa57600080fd5b506103c560048036038101906103c091906115a7565b61080f565b6040516103d29190611c5c565b60405180910390f35b3480156103e757600080fd5b506103f0610827565b6040516103fd9190611c77565b60405180910390f35b34801561041257600080fd5b5061042d600480360381019061042891906115a7565b61082c565b60405161043a9190611c5c565b60405180910390f35b61045d600480360381019061045891906114ac565b610850565b005b34801561046b57600080fd5b50610486600480360381019061048191906115a7565b610ac9565b6040516104939190611c5c565b60405180910390f35b3480156104a857600080fd5b506104c360048036038101906104be9190611539565b610cf3565b6040516104d09190611a27565b60405180910390f35b3480156104e557600080fd5b506104ee610e2c565b6040516104fb9190611ac6565b60405180910390f35b60066020528060005260406000206000915054906101000a900460ff1681565b7f000000000000000000000000000000000000000000000000000000000000000081565b600060049054906101000a900463ffffffff1681565b7f000000000000000000000000000000000000000000000000000000000000000081565b7f30644e72e131a029b85045b68181585d2833e84879b9709143e1f593f000000181565b60076020528060005260406000206000915054906101000a900460ff1681565b60008054906101000a900463ffffffff1681565b60006006600083815260200190815260200160002060009054906101000a900460ff169050919050565b60016020528060005260406000206000915090505481565b6000600380549050905090565b60055481565b60008082141561064257600090506106d4565b6000601e600060049054906101000a900463ffffffff166106639190611ff2565b905060008190505b83600260008363ffffffff168152602001908152602001600020541415610697576001925050506106d4565b60008163ffffffff1614156106ab57601e90505b80806106b690611f21565b9150508163ffffffff168163ffffffff16141561066b576000925050505b919050565b6002600454141561071f576040517f08c379a000000000000000000000000000000000000000000000000000000000815260040161071690611c1c565b60405180910390fd5b60026004819055506007600082815260200190815260200160002060009054906101000a900460ff1615610788576040517f08c379a000000000000000000000000000000000000000000000000000000000815260040161077f90611b1c565b60405180910390fd5b600061079382610e50565b905060016007600084815260200190815260200160002060006101000a81548160ff0219169083151502179055506107c96111aa565b817f2813ca2762c14ad53880ef467c7448a9015904c20e064e6216ffb3f63390ec5d82426040516107fb929190611c92565b60405180910390a250600160048190555050565b60026020528060005260406000206000915090505481565b601e81565b6003818154811061083c57600080fd5b906000526020600020016000915090505481565b60026004541415610896576040517f08c379a000000000000000000000000000000000000000000000000000000000815260040161088d90611c1c565b60405180910390fd5b60026004819055506006600083815260200190815260200160002060009054906101000a900460ff16156108ff576040517f08c379a00000000000000000000000000000000000000000000000000000000081526004016108f690611b7c565b60405180910390fd5b6109088361062f565b610947576040517f08c379a000000000000000000000000000000000000000000000000000000000815260040161093e90611c3c565b60405180910390fd5b7f000000000000000000000000000000000000000000000000000000000000000073ffffffffffffffffffffffffffffffffffffffff1663f5c9d69e8787876040518060400160405280898152602001888152506040518563ffffffff1660e01b81526004016109ba9493929190611a64565b602060405180830381600087803b1580156109d457600080fd5b505af11580156109e8573d6000803e3d6000fd5b505050506040513d601f19601f82011682018060405250810190610a0c919061157e565b610a4b576040517f08c379a0000000000000000000000000000000000000000000000000000000008152600401610a4290611bdc565b60405180910390fd5b60016006600084815260200190815260200160002060006101000a81548160ff021916908315150217905550610a80816111f0565b7f7fcf532c15f0a6db0bd6d0e038bea71d30d808c7d98cb3bf7268a95bf5081b658183604051610ab19291906119fe565b60405180910390a16001600481905550505050505050565b600080821415610afb577f1b47eebd31a8cdbc109d42a60ae2f77d3916fdf63e1d6d3c9614c84c665876169050610cee565b6001821415610b2c577f0998c45a8df60690d2142a1e29541e4c5203c5f0039e1f736a48a4ea3939996c9050610cee565b6002821415610b5d577f1b8525aeb12de720fbc32b7a5b505efc1bd4396e223644aed9d48c4ecc5a64519050610cee565b6003821415610b8e577f1937e198ced295751ebf9996ad4429473bb657521a76f372ab62eab9dd09f7299050610cee565b6004821415610bbf577f043fae75b0a1c6cfe6bbd4a260fc421f26cd352974d31d3627896a677f3931a39050610cee565b6005821415610bef577e7c68bad132df37627c5fa5e1c06601d5af97124b0bd19f6e29593e1814ae519050610cee565b6006821415610c20577f2aca3ddb1f0c22cd53383b85231c1a10634f160ce945c639b2b799ed8b37f5ae9050610cee565b6007821415610c51577f037ca32d66c15af3f7cb3cbc7d5b0fad9104582d24416fdd85c50586d3079a0e9050610cee565b6008821415610c82577f1c9e22b869e38db54e772baa9a4765b9ccb1ea458ea4a50c3ce9ce5152a955819050610cee565b6009821415610cb3577f283f3963c14e4a1873557637cf74773b5de1d3dcafa8c2c82f18720fabd5e0f99050610cee565b6040517f08c379a0000000000000000000000000000000000000000000000000000000008152600401610ce590611bbc565b60405180910390fd5b919050565b60608282905067ffffffffffffffff811115610d38577f4e487b7100000000000000000000000000000000000000000000000000000000600052604160045260246000fd5b604051908082528060200260200182016040528015610d665781602001602082028036833780820191505090505b50905060005b83839050811015610e2557610dbf848483818110610db3577f4e487b7100000000000000000000000000000000000000000000000000000000600052603260045260246000fd5b905060200201356105da565b15610e12576001828281518110610dff577f4e487b7100000000000000000000000000000000000000000000000000000000600052603260045260246000fd5b6020026020010190151590811515815250505b8080610e1d90611f7c565b915050610d6c565b5092915050565b7f000000000000000000000000000000000000000000000000000000000000000081565b60007f000000000000000000000000000000000000000000000000000000000000000063ffffffff16600060049054906101000a900463ffffffff1663ffffffff161415610ed3576040517f08c379a0000000000000000000000000000000000000000000000000000000008152600401610eca90611bfc565b60405180910390fd5b7f30644e72e131a029b85045b68181585d2833e84879b9709143e1f593f00000018210610f35576040517f08c379a0000000000000000000000000000000000000000000000000000000008152600401610f2c90611b5c565b60405180910390fd5b600382908060018154018082558091505060019003906000526020600020016000909190919091505560008060049054906101000a900463ffffffff169050600083905060008060005b60008054906101000a900463ffffffff1663ffffffff168163ffffffff161015611102576000600286610fb29190611ff2565b63ffffffff161415610ffb57839250610fd08163ffffffff16610ac9565b915083600160008363ffffffff1663ffffffff16815260200190815260200160002081905550611021565b600160008263ffffffff1663ffffffff1681526020019081526020016000205492508391505b7f000000000000000000000000000000000000000000000000000000000000000073ffffffffffffffffffffffffffffffffffffffff166329a5f2f66040518060400160405280868152602001858152506040518263ffffffff1660e01b815260040161108e9190611a49565b60206040518083038186803b1580156110a657600080fd5b505afa1580156110ba573d6000803e3d6000fd5b505050506040513d601f19601f820116820180604052508101906110de91906115d0565b93506002856110ed9190611de6565b945080806110fa90611fc5565b915050610f7f565b508260026000601e600060049054906101000a900463ffffffff166111279190611ff2565b63ffffffff168152602001908152602001600020819055506000600481819054906101000a900463ffffffff168092919061116190611fc5565b91906101000a81548163ffffffff021916908363ffffffff160217905550506001600060049054906101000a900463ffffffff1661119f9190611e17565b945050505050919050565b60055434146111ee576040517f08c379a00000000000000000000000000000000000000000000000000000000081526004016111e590611b9c565b60405180910390fd5b565b60003414611233576040517f08c379a000000000000000000000000000000000000000000000000000000000815260040161122a90611afc565b60405180910390fd5b60008173ffffffffffffffffffffffffffffffffffffffff1660055460405161125b906119e9565b60006040518083038185875af1925050503d8060008114611298576040519150601f19603f3d011682016040523d82523d6000602084013e61129d565b606091505b50509050806112e1576040517f08c379a00000000000000000000000000000000000000000000000000000000081526004016112d890611b3c565b60405180910390fd5b5050565b60006112f86112f384611ce0565b611cbb565b9050808285604086028201111561130e57600080fd5b60005b8581101561133e578161132488826113e7565b845260208401935060408301925050600181019050611311565b5050509392505050565b600061135b61135684611d06565b611cbb565b9050808285602086028201111561137157600080fd5b60005b858110156113a15781611387888261146d565b845260208401935060208301925050600181019050611374565b5050509392505050565b6000813590506113ba8161236b565b92915050565b600082601f8301126113d157600080fd5b60026113de8482856112e5565b91505092915050565b600082601f8301126113f857600080fd5b6002611405848285611348565b91505092915050565b60008083601f84011261142057600080fd5b8235905067ffffffffffffffff81111561143957600080fd5b60208301915083602082028301111561145157600080fd5b9250929050565b60008151905061146781612382565b92915050565b60008135905061147c81612399565b92915050565b60008151905061149181612399565b92915050565b6000813590506114a6816123b0565b92915050565b60008060008060008061016087890312156114c657600080fd5b60006114d489828a016113e7565b96505060406114e589828a016113c0565b95505060c06114f689828a016113e7565b94505061010061150889828a0161146d565b93505061012061151a89828a0161146d565b92505061014061152c89828a016113ab565b9150509295509295509295565b6000806020838503121561154c57600080fd5b600083013567ffffffffffffffff81111561156657600080fd5b6115728582860161140e565b92509250509250929050565b60006020828403121561159057600080fd5b600061159e84828501611458565b91505092915050565b6000602082840312156115b957600080fd5b60006115c78482850161146d565b91505092915050565b6000602082840312156115e257600080fd5b60006115f084828501611482565b91505092915050565b60006020828403121561160b57600080fd5b600061161984828501611497565b91505092915050565b600061162e838361172e565b60408301905092915050565b600061164683836117dc565b60208301905092915050565b600061165e83836119bc565b60208301905092915050565b61167381611ea3565b82525050565b61168281611d50565b61168c8184611d98565b925061169782611d2c565b8060005b838110156116c85781516116af8782611622565b96506116ba83611d71565b92505060018101905061169b565b505050505050565b60006116db82611d5b565b6116e58185611da3565b93506116f083611d36565b8060005b83811015611721578151611708888261163a565b975061171383611d7e565b9250506001810190506116f4565b5085935050505092915050565b61173781611d66565b6117418184611db4565b925061174c82611d46565b8060005b8381101561177d5781516117648782611652565b965061176f83611d8b565b925050600181019050611750565b505050505050565b61178e81611d66565b6117988184611dbf565b92506117a382611d46565b8060005b838110156117d45781516117bb8782611652565b96506117c683611d8b565b9250506001810190506117a7565b505050505050565b6117e581611e5d565b82525050565b6117f481611e5d565b82525050565b61180381611eb5565b82525050565b61181281611ed9565b82525050565b6000611825603383611dd5565b9150611830826120c1565b604082019050919050565b6000611848602883611dd5565b915061185382612110565b604082019050919050565b600061186b602f83611dd5565b91506118768261215f565b604082019050919050565b600061188e602083611dd5565b9150611899826121ae565b602082019050919050565b60006118b1602683611dd5565b91506118bc826121d7565b604082019050919050565b60006118d4603f83611dd5565b91506118df82612226565b604082019050919050565b60006118f7600083611dca565b915061190282612275565b600082019050919050565b600061191a601383611dd5565b915061192582612278565b602082019050919050565b600061193d601d83611dd5565b9150611948826122a1565b602082019050919050565b6000611960601383611dd5565b915061196b826122ca565b602082019050919050565b6000611983601f83611dd5565b915061198e826122f3565b602082019050919050565b60006119a6602183611dd5565b91506119b18261231c565b604082019050919050565b6119c581611e89565b82525050565b6119d481611e89565b82525050565b6119e381611e93565b82525050565b60006119f4826118ea565b9150819050919050565b6000604082019050611a13600083018561166a565b611a2060208301846119cb565b9392505050565b60006020820190508181036000830152611a4181846116d0565b905092915050565b6000604082019050611a5e6000830184611785565b92915050565b600061014082019050611a7a6000830187611785565b611a876040830186611679565b611a9460c0830185611785565b611aa2610100830184611785565b95945050505050565b6000602082019050611ac060008301846117eb565b92915050565b6000602082019050611adb60008301846117fa565b92915050565b6000602082019050611af66000830184611809565b92915050565b60006020820190508181036000830152611b1581611818565b9050919050565b60006020820190508181036000830152611b358161183b565b9050919050565b60006020820190508181036000830152611b558161185e565b9050919050565b60006020820190508181036000830152611b7581611881565b9050919050565b60006020820190508181036000830152611b95816118a4565b9050919050565b60006020820190508181036000830152611bb5816118c7565b9050919050565b60006020820190508181036000830152611bd58161190d565b9050919050565b60006020820190508181036000830152611bf581611930565b9050919050565b60006020820190508181036000830152611c1581611953565b9050919050565b60006020820190508181036000830152611c3581611976565b9050919050565b60006020820190508181036000830152611c5581611999565b9050919050565b6000602082019050611c7160008301846119cb565b92915050565b6000602082019050611c8c60008301846119da565b92915050565b6000604082019050611ca760008301856119da565b611cb460208301846119cb565b9392505050565b6000611cc5611cd6565b9050611cd18282611f4b565b919050565b6000604051905090565b600067ffffffffffffffff821115611cfb57611cfa612081565b5b602082029050919050565b600067ffffffffffffffff821115611d2157611d20612081565b5b602082029050919050565b6000819050919050565b6000819050602082019050919050565b6000819050919050565b600060029050919050565b600081519050919050565b600060029050919050565b6000602082019050919050565b6000602082019050919050565b6000602082019050919050565b600081905092915050565b600082825260208201905092915050565b600081905092915050565b600081905092915050565b600081905092915050565b600082825260208201905092915050565b6000611df182611e93565b9150611dfc83611e93565b925082611e0c57611e0b612052565b5b828204905092915050565b6000611e2282611e93565b9150611e2d83611e93565b925082821015611e4057611e3f612023565b5b828203905092915050565b6000611e5682611e69565b9050919050565b60008115159050919050565b600073ffffffffffffffffffffffffffffffffffffffff82169050919050565b6000819050919050565b600063ffffffff82169050919050565b6000611eae82611efd565b9050919050565b6000611ec082611ec7565b9050919050565b6000611ed282611e69565b9050919050565b6000611ee482611eeb565b9050919050565b6000611ef682611e69565b9050919050565b6000611f0882611f0f565b9050919050565b6000611f1a82611e69565b9050919050565b6000611f2c82611e93565b91506000821415611f4057611f3f612023565b5b600182039050919050565b611f54826120b0565b810181811067ffffffffffffffff82111715611f7357611f72612081565b5b80604052505050565b6000611f8782611e89565b91507fffffffffffffffffffffffffffffffffffffffffffffffffffffffffffffffff821415611fba57611fb9612023565b5b600182019050919050565b6000611fd082611e93565b915063ffffffff821415611fe757611fe6612023565b5b600182019050919050565b6000611ffd82611e93565b915061200883611e93565b92508261201857612017612052565b5b828206905092915050565b7f4e487b7100000000000000000000000000000000000000000000000000000000600052601160045260246000fd5b7f4e487b7100000000000000000000000000000000000000000000000000000000600052601260045260246000fd5b7f4e487b7100000000000000000000000000000000000000000000000000000000600052604160045260246000fd5b6000601f19601f8301169050919050565b7f4d697875703a204d6573736167652076616c756520697320737570706f73656460008201527f20746f206265207a65726f20666f722045544800000000000000000000000000602082015250565b7f4d697875703a2054686520636f6d6d69746d656e7420686173206265656e207360008201527f75626d6974746564000000000000000000000000000000000000000000000000602082015250565b7f4d697875703a207061796d656e7420746f205f726563697069656e742077617360008201527f206e6f74207375636365737366756c0000000000000000000000000000000000602082015250565b7f4c6561662068617320746f2062652077697468696e206669656c642073697a65600082015250565b7f4d697875703a20546865206e6f74652068617320616c7265616479206265656e60008201527f207370656e740000000000000000000000000000000000000000000000000000602082015250565b7f4d697875703a20506c656173652073656e6420606d697844656e6f6d696e617460008201527f696f6e602045544820616c6f6e672077697468207472616e73616374696f6e00602082015250565b50565b7f496e646578206f7574206f6620626f756e647300000000000000000000000000600082015250565b7f4d697875703a20496e76616c69642077697468647261772070726f6f66000000600082015250565b7f4d65726b6c6520747265652069732066756c6c00000000000000000000000000600082015250565b7f5265656e7472616e637947756172643a207265656e7472616e742063616c6c00600082015250565b7f4d697875703a206d65726b6c6520726f6f7420646f6573206e6f74206578697360008201527f7400000000000000000000000000000000000000000000000000000000000000602082015250565b61237481611e4b565b811461237f57600080fd5b50565b61238b81611e5d565b811461239657600080fd5b50565b6123a281611e89565b81146123ad57600080fd5b50565b6123b981611e93565b81146123c457600080fd5b5056fea2646970667358221220445203b7d70e3c5d6409774f78d7f93e53c503a77388592448a3465a9122d0e664736f6c63430008040033",
  "linkReferences": {},
  "deployedLinkReferences": {}
}