{
  "_format": "hh-sol-artifact-1",
  "contractName": "ETHMixup",
  "sourceName": "contracts/ETHMixup.sol",
  "abi": [
    {
      "inputs": [
        {
          "internalType": "contract IVerifier",
          "name": "_verifier",
          "type": "address"
        },
        {
          "internalType": "address",
          "name": "_hasher",
          "type": "address"
        },
        {
          "internalType": "uint256",
          "name": "_denomination",
          "type": "uint256"
        },
        {
          "internalType": "uint32",
          "name": "_merkleTreeHeight",
          "type": "uint32"
        }
      ],
      "stateMutability": "nonpayable",
      "type": "constructor"
    },
    {
      "anonymous": false,
      "inputs": [
        {
          "indexed": true,
          "internalType": "uint256",
          "name": "commitment",
          "type": "uint256"
        },
        {
          "indexed": false,
          "internalType": "uint32",
          "name": "leafIndex",
          "type": "uint32"
        },
        {
          "indexed": false,
          "internalType": "uint256",
          "name": "timestamp",
          "type": "uint256"
        }
      ],
      "name": "Deposit",
      "type": "event"
    },
    {
      "anonymous": false,
      "inputs": [
        {
          "indexed": false,
          "internalType": "address",
          "name": "to",
          "type": "address"
        },
        {
          "indexed": false,
          "internalType": "uint256",
          "name": "nullifierHash",
          "type": "uint256"
        }
      ],
      "name": "Withdrawal",
      "type": "event"
    },
    {
      "inputs": [],
      "name": "FIELD_SIZE",
      "outputs": [
        {
          "internalType": "uint256",
          "name": "",
          "type": "uint256"
        }
      ],
      "stateMutability": "view",
      "type": "function"
    },
    {
      "inputs": [],
      "name": "ROOT_HISTORY_SIZE",
      "outputs": [
        {
          "internalType": "uint32",
          "name": "",
          "type": "uint32"
        }
      ],
      "stateMutability": "view",
      "type": "function"
    },
    {
      "inputs": [],
      "name": "ZERO_VALUE",
      "outputs": [
        {
          "internalType": "uint256",
          "name": "",
          "type": "uint256"
        }
      ],
      "stateMutability": "view",
      "type": "function"
    },
    {
      "inputs": [
        {
          "internalType": "uint256",
          "name": "",
          "type": "uint256"
        }
      ],
      "name": "commitments",
      "outputs": [
        {
          "internalType": "bool",
          "name": "",
          "type": "bool"
        }
      ],
      "stateMutability": "view",
      "type": "function"
    },
    {
      "inputs": [],
      "name": "currentRootIndex",
      "outputs": [
        {
          "internalType": "uint32",
          "name": "",
          "type": "uint32"
        }
      ],
      "stateMutability": "view",
      "type": "function"
    },
    {
      "inputs": [],
      "name": "denomination",
      "outputs": [
        {
          "internalType": "uint256",
          "name": "",
          "type": "uint256"
        }
      ],
      "stateMutability": "view",
      "type": "function"
    },
    {
      "inputs": [
        {
          "internalType": "uint256",
          "name": "_commitment",
          "type": "uint256"
        }
      ],
      "name": "deposit",
      "outputs": [],
      "stateMutability": "payable",
      "type": "function"
    },
    {
      "inputs": [
        {
          "internalType": "uint256",
          "name": "",
          "type": "uint256"
        }
      ],
      "name": "filledSubtrees",
      "outputs": [
        {
          "internalType": "uint256",
          "name": "",
          "type": "uint256"
        }
      ],
      "stateMutability": "view",
      "type": "function"
    },
    {
      "inputs": [],
      "name": "getLastRoot",
      "outputs": [
        {
          "internalType": "uint256",
          "name": "",
          "type": "uint256"
        }
      ],
      "stateMutability": "view",
      "type": "function"
    },
    {
      "inputs": [
        {
          "internalType": "uint256",
          "name": "_left",
          "type": "uint256"
        },
        {
          "internalType": "uint256",
          "name": "_right",
          "type": "uint256"
        }
      ],
      "name": "hashLeftRight",
      "outputs": [
        {
          "internalType": "uint256",
          "name": "",
          "type": "uint256"
        }
      ],
      "stateMutability": "view",
      "type": "function"
    },
    {
      "inputs": [],
      "name": "hasher",
      "outputs": [
        {
          "internalType": "contract Hasher",
          "name": "",
          "type": "address"
        }
      ],
      "stateMutability": "view",
      "type": "function"
    },
    {
      "inputs": [
        {
          "internalType": "uint256",
          "name": "_root",
          "type": "uint256"
        }
      ],
      "name": "isKnownRoot",
      "outputs": [
        {
          "internalType": "bool",
          "name": "",
          "type": "bool"
        }
      ],
      "stateMutability": "view",
      "type": "function"
    },
    {
      "inputs": [
        {
          "internalType": "uint256",
          "name": "_nullifierHash",
          "type": "uint256"
        }
      ],
      "name": "isSpent",
      "outputs": [
        {
          "internalType": "bool",
          "name": "",
          "type": "bool"
        }
      ],
      "stateMutability": "view",
      "type": "function"
    },
    {
      "inputs": [
        {
          "internalType": "uint256[]",
          "name": "_nullifierHashes",
          "type": "uint256[]"
        }
      ],
      "name": "isSpentArray",
      "outputs": [
        {
          "internalType": "bool[]",
          "name": "spent",
          "type": "bool[]"
        }
      ],
      "stateMutability": "view",
      "type": "function"
    },
    {
      "inputs": [],
      "name": "levels",
      "outputs": [
        {
          "internalType": "uint32",
          "name": "",
          "type": "uint32"
        }
      ],
      "stateMutability": "view",
      "type": "function"
    },
    {
      "inputs": [],
      "name": "nextIndex",
      "outputs": [
        {
          "internalType": "uint32",
          "name": "",
          "type": "uint32"
        }
      ],
      "stateMutability": "view",
      "type": "function"
    },
    {
      "inputs": [
        {
          "internalType": "uint256",
          "name": "",
          "type": "uint256"
        }
      ],
      "name": "nullifierHashes",
      "outputs": [
        {
          "internalType": "bool",
          "name": "",
          "type": "bool"
        }
      ],
      "stateMutability": "view",
      "type": "function"
    },
    {
      "inputs": [
        {
          "internalType": "uint256",
          "name": "",
          "type": "uint256"
        }
      ],
      "name": "roots",
      "outputs": [
        {
          "internalType": "uint256",
          "name": "",
          "type": "uint256"
        }
      ],
      "stateMutability": "view",
      "type": "function"
    },
    {
      "inputs": [],
      "name": "verifier",
      "outputs": [
        {
          "internalType": "contract IVerifier",
          "name": "",
          "type": "address"
        }
      ],
      "stateMutability": "view",
      "type": "function"
    },
    {
      "inputs": [
        {
          "internalType": "uint256[2]",
          "name": "a",
          "type": "uint256[2]"
        },
        {
          "internalType": "uint256[2][2]",
          "name": "b",
          "type": "uint256[2][2]"
        },
        {
          "internalType": "uint256[2]",
          "name": "c",
          "type": "uint256[2]"
        },
        {
          "internalType": "uint256",
          "name": "_root",
          "type": "uint256"
        },
        {
          "internalType": "uint256",
          "name": "_nullifierHash",
          "type": "uint256"
        },
        {
          "internalType": "address payable",
          "name": "_recipient",
          "type": "address"
        }
      ],
      "name": "withdraw",
      "outputs": [],
      "stateMutability": "payable",
      "type": "function"
    },
    {
      "inputs": [
        {
          "internalType": "uint256",
          "name": "",
          "type": "uint256"
        }
      ],
      "name": "zeros",
      "outputs": [
        {
          "internalType": "uint256",
          "name": "",
          "type": "uint256"
        }
      ],
      "stateMutability": "view",
      "type": "function"
    }
  ],
  "bytecode": "0x60c06040526000600360006101000a81548163ffffffff021916908363ffffffff1602179055506000600360046101000a81548163ffffffff021916908363ffffffff1602179055503480156200005557600080fd5b50604051620030ff380380620030ff83398181016040528101906200007b919062000569565b83838383808360008263ffffffff1611620000cd576040517f08c379a0000000000000000000000000000000000000000000000000000000008152600401620000c490620007d5565b60405180910390fd5b60208263ffffffff161062000119576040517f08c379a00000000000000000000000000000000000000000000000000000000081526004016200011090620007f7565b60405180910390fd5b806000806101000a81548173ffffffffffffffffffffffffffffffffffffffff021916908373ffffffffffffffffffffffffffffffffffffffff1602179055508163ffffffff1660808163ffffffff1660e01b8152505060007f2fe54c60d3acabf3343a35b6eba15db4821b340f76e741e2249685ed4899af6c9050600281908060018154018082558091505060019003906000526020600020016000909190919091505560018190806001815401808255809150506001900390600052602060002001600090919091909150556000600190505b8363ffffffff168163ffffffff1610156200027f576200021582836200037060201b60201c565b91506002829080600181540180825580915050600190039060005260206000200160009091909190915055600182908060018154018082558091505060019003906000526020600020016000909190919091505580806200027690620008b9565b915050620001ee565b506200029281826200037060201b60201c565b6004600060648110620002ce577f4e487b7100000000000000000000000000000000000000000000000000000000600052603260045260246000fd5b018190555050505060016068819055506000821162000324576040517f08c379a00000000000000000000000000000000000000000000000000000000081526004016200031b906200076f565b60405180910390fd5b8373ffffffffffffffffffffffffffffffffffffffff1660a08173ffffffffffffffffffffffffffffffffffffffff1660601b8152505081606981905550505050505050505062000ae7565b60007f30644e72e131a029b85045b68181585d2833e84879b9709143e1f593f00000018310620003d7576040517f08c379a0000000000000000000000000000000000000000000000000000000008152600401620003ce9062000791565b60405180910390fd5b7f30644e72e131a029b85045b68181585d2833e84879b9709143e1f593f000000182106200043c576040517f08c379a00000000000000000000000000000000000000000000000000000000081526004016200043390620007b3565b60405180910390fd5b6000604051806040016040528085815260200184815250905060008054906101000a900473ffffffffffffffffffffffffffffffffffffffff1673ffffffffffffffffffffffffffffffffffffffff166329a5f2f6826040518263ffffffff1660e01b8152600401620004b0919062000752565b60206040518083038186803b158015620004c957600080fd5b505afa158015620004de573d6000803e3d6000fd5b505050506040513d601f19601f82011682018060405250810190620005049190620005d5565b91505092915050565b6000815190506200051e8162000a7f565b92915050565b600081519050620005358162000a99565b92915050565b6000815190506200054c8162000ab3565b92915050565b600081519050620005638162000acd565b92915050565b600080600080608085870312156200058057600080fd5b6000620005908782880162000524565b9450506020620005a3878288016200050d565b9350506040620005b6878288016200053b565b9250506060620005c98782880162000552565b91505092959194509250565b600060208284031215620005e857600080fd5b6000620005f8848285016200053b565b91505092915050565b60006200060f838362000741565b60208301905092915050565b620006268162000823565b6200063281846200083b565b92506200063f8262000819565b8060005b83811015620006765781516200065a878262000601565b965062000667836200082e565b92505060018101905062000643565b505050505050565b60006200068d602c8362000846565b91506200069a826200091a565b604082019050919050565b6000620006b460208362000846565b9150620006c18262000969565b602082019050919050565b6000620006db60218362000846565b9150620006e88262000992565b604082019050919050565b60006200070260278362000846565b91506200070f82620009e1565b604082019050919050565b60006200072960228362000846565b9150620007368262000a30565b604082019050919050565b6200074c816200089f565b82525050565b60006040820190506200076960008301846200061b565b92915050565b600060208201905081810360008301526200078a816200067e565b9050919050565b60006020820190508181036000830152620007ac81620006a5565b9050919050565b60006020820190508181036000830152620007ce81620006cc565b9050919050565b60006020820190508181036000830152620007f081620006f3565b9050919050565b6000602082019050818103600083015262000812816200071a565b9050919050565b6000819050919050565b600060029050919050565b6000602082019050919050565b600081905092915050565b600082825260208201905092915050565b600062000864826200087f565b9050919050565b6000620008788262000857565b9050919050565b600073ffffffffffffffffffffffffffffffffffffffff82169050919050565b6000819050919050565b600063ffffffff82169050919050565b6000620008c682620008a9565b915063ffffffff821415620008e057620008df620008eb565b5b600182019050919050565b7f4e487b7100000000000000000000000000000000000000000000000000000000600052601160045260246000fd5b7f4d697875703a2044656e6f6d696e6174696f6e2073686f756c6420626520677260008201527f6561746572207468616e20300000000000000000000000000000000000000000602082015250565b7f5f6c6566742073686f756c6420626520696e7369646520746865206669656c64600082015250565b7f5f72696768742073686f756c6420626520696e7369646520746865206669656c60008201527f6400000000000000000000000000000000000000000000000000000000000000602082015250565b7f5f747265654c6576656c732073686f756c64206265206772656174657220746860008201527f616e207a65726f00000000000000000000000000000000000000000000000000602082015250565b7f5f747265654c6576656c732073686f756c64206265206c657373207468616e2060008201527f3332000000000000000000000000000000000000000000000000000000000000602082015250565b62000a8a8162000857565b811462000a9657600080fd5b50565b62000aa4816200086b565b811462000ab057600080fd5b50565b62000abe816200089f565b811462000aca57600080fd5b50565b62000ad881620008a9565b811462000ae457600080fd5b50565b60805160e01c60a05160601c6125d762000b286000396000818161055c0152610b380152600081816105c401528181610eb10152610f7701526125d76000f3fe60806040526004361061012a5760003560e01c8063b6b55f25116100ab578063e82955881161006f578063e829558814610402578063ea65ba491461043f578063ec7329591461047c578063ed33639f146104a7578063f178e47c146104d2578063fc7e9c6f1461050f5761012a565b8063b6b55f2514610337578063ba70f75714610353578063c2b40ae41461037e578063cd87a3b4146103bb578063e2dd3411146103e65761012a565b80635a129efe116100f25780635a129efe1461022a5780635bb93995146102675780638bca6d16146102a457806390eeb02b146102cf578063a6232a93146102fa5761012a565b80631f79a1e91461012f5780632b7ac3f31461016c578063414a37ba1461019757806349ce8997146101c25780634ecf518b146101ff575b600080fd5b34801561013b57600080fd5b506101566004803603810190610151919061159d565b61053a565b6040516101639190611ab4565b60405180910390f35b34801561017857600080fd5b5061018161055a565b60405161018e9190611aea565b60405180910390f35b3480156101a357600080fd5b506101ac61057e565b6040516101b99190611c65565b60405180910390f35b3480156101ce57600080fd5b506101e960048036038101906101e4919061159d565b6105a2565b6040516101f69190611ab4565b60405180910390f35b34801561020b57600080fd5b506102146105c2565b6040516102219190611c80565b60405180910390f35b34801561023657600080fd5b50610251600480360381019061024c919061159d565b6105e6565b60405161025e9190611ab4565b60405180910390f35b34801561027357600080fd5b5061028e600480360381019061028991906115ef565b610610565b60405161029b9190611c65565b60405180910390f35b3480156102b057600080fd5b506102b96107a1565b6040516102c69190611c65565b60405180910390f35b3480156102db57600080fd5b506102e46107a7565b6040516102f19190611c80565b60405180910390f35b34801561030657600080fd5b50610321600480360381019061031c919061159d565b6107bd565b60405161032e9190611ab4565b60405180910390f35b610351600480360381019061034c919061159d565b61088e565b005b34801561035f57600080fd5b506103686109c4565b6040516103759190611c65565b60405180910390f35b34801561038a57600080fd5b506103a560048036038101906103a0919061159d565b610a1f565b6040516103b29190611c65565b60405180910390f35b3480156103c757600080fd5b506103d0610a3a565b6040516103dd9190611c80565b60405180910390f35b61040060048036038101906103fb91906114a2565b610a3f565b005b34801561040e57600080fd5b506104296004803603810190610424919061159d565b610cb8565b6040516104369190611c65565b60405180910390f35b34801561044b57600080fd5b506104666004803603810190610461919061152f565b610cdc565b6040516104739190611a30565b60405180910390f35b34801561048857600080fd5b50610491610e15565b60405161049e9190611c65565b60405180910390f35b3480156104b357600080fd5b506104bc610e39565b6040516104c99190611acf565b60405180910390f35b3480156104de57600080fd5b506104f960048036038101906104f4919061159d565b610e5d565b6040516105069190611c65565b60405180910390f35b34801561051b57600080fd5b50610524610e81565b6040516105319190611c80565b60405180910390f35b606a6020528060005260406000206000915054906101000a900460ff1681565b7f000000000000000000000000000000000000000000000000000000000000000081565b7f30644e72e131a029b85045b68181585d2833e84879b9709143e1f593f000000181565b606b6020528060005260406000206000915054906101000a900460ff1681565b7f000000000000000000000000000000000000000000000000000000000000000081565b6000606a600083815260200190815260200160002060009054906101000a900460ff169050919050565b60007f30644e72e131a029b85045b68181585d2833e84879b9709143e1f593f00000018310610674576040517f08c379a000000000000000000000000000000000000000000000000000000000815260040161066b90611b85565b60405180910390fd5b7f30644e72e131a029b85045b68181585d2833e84879b9709143e1f593f000000182106106d6576040517f08c379a00000000000000000000000000000000000000000000000000000000081526004016106cd90611ba5565b60405180910390fd5b6000604051806040016040528085815260200184815250905060008054906101000a900473ffffffffffffffffffffffffffffffffffffffff1673ffffffffffffffffffffffffffffffffffffffff166329a5f2f6826040518263ffffffff1660e01b81526004016107489190611a52565b60206040518083038186803b15801561076057600080fd5b505afa158015610774573d6000803e3d6000fd5b505050506040513d601f19601f8201168201806040525081019061079891906115c6565b91505092915050565b60695481565b600360009054906101000a900463ffffffff1681565b6000808214156107d05760009050610889565b6000600360009054906101000a900463ffffffff1690505b60048163ffffffff1660648110610828577f4e487b7100000000000000000000000000000000000000000000000000000000600052603260045260246000fd5b015483141561083b576001915050610889565b60008163ffffffff16141561084f57606490505b808061085a906120b9565b915050600360009054906101000a900463ffffffff1663ffffffff168163ffffffff1614156107e85760009150505b919050565b600260685414156108d4576040517f08c379a00000000000000000000000000000000000000000000000000000000081526004016108cb90611c25565b60405180910390fd5b6002606881905550606b600082815260200190815260200160002060009054906101000a900460ff161561093d576040517f08c379a000000000000000000000000000000000000000000000000000000000815260040161093490611b45565b60405180910390fd5b600061094882610e97565b90506001606b600084815260200190815260200160002060006101000a81548160ff02191690831515021790555061097e6111b5565b817f2813ca2762c14ad53880ef467c7448a9015904c20e064e6216ffb3f63390ec5d82426040516109b0929190611c9b565b60405180910390a250600160688190555050565b60006004600360009054906101000a900463ffffffff1663ffffffff1660648110610a18577f4e487b7100000000000000000000000000000000000000000000000000000000600052603260045260246000fd5b0154905090565b60048160648110610a2f57600080fd5b016000915090505481565b606481565b60026068541415610a85576040517f08c379a0000000000000000000000000000000000000000000000000000000008152600401610a7c90611c25565b60405180910390fd5b6002606881905550606a600083815260200190815260200160002060009054906101000a900460ff1615610aee576040517f08c379a0000000000000000000000000000000000000000000000000000000008152600401610ae590611bc5565b60405180910390fd5b610af7836107bd565b610b36576040517f08c379a0000000000000000000000000000000000000000000000000000000008152600401610b2d90611c45565b60405180910390fd5b7f000000000000000000000000000000000000000000000000000000000000000073ffffffffffffffffffffffffffffffffffffffff1663f5c9d69e8787876040518060400160405280898152602001888152506040518563ffffffff1660e01b8152600401610ba99493929190611a6d565b602060405180830381600087803b158015610bc357600080fd5b505af1158015610bd7573d6000803e3d6000fd5b505050506040513d601f19601f82011682018060405250810190610bfb9190611574565b610c3a576040517f08c379a0000000000000000000000000000000000000000000000000000000008152600401610c3190611c05565b60405180910390fd5b6001606a600084815260200190815260200160002060006101000a81548160ff021916908315150217905550610c6f816111fb565b7f7fcf532c15f0a6db0bd6d0e038bea71d30d808c7d98cb3bf7268a95bf5081b658183604051610ca0929190611a07565b60405180910390a16001606881905550505050505050565b60028181548110610cc857600080fd5b906000526020600020016000915090505481565b60608282905067ffffffffffffffff811115610d21577f4e487b7100000000000000000000000000000000000000000000000000000000600052604160045260246000fd5b604051908082528060200260200182016040528015610d4f5781602001602082028036833780820191505090505b50905060005b83839050811015610e0e57610da8848483818110610d9c577f4e487b7100000000000000000000000000000000000000000000000000000000600052603260045260246000fd5b905060200201356105e6565b15610dfb576001828281518110610de8577f4e487b7100000000000000000000000000000000000000000000000000000000600052603260045260246000fd5b6020026020010190151590811515815250505b8080610e0690612114565b915050610d55565b5092915050565b7f2fe54c60d3acabf3343a35b6eba15db4821b340f76e741e2249685ed4899af6c81565b60008054906101000a900473ffffffffffffffffffffffffffffffffffffffff1681565b60018181548110610e6d57600080fd5b906000526020600020016000915090505481565b600360049054906101000a900463ffffffff1681565b600080600360049054906101000a900463ffffffff1690507f00000000000000000000000000000000000000000000000000000000000000006002610edc9190611ead565b63ffffffff168163ffffffff161415610f2a576040517f08c379a0000000000000000000000000000000000000000000000000000000008152600401610f2190611b25565b60405180910390fd5b6001600360048282829054906101000a900463ffffffff16610f4c9190611def565b92506101000a81548163ffffffff021916908363ffffffff160217905550600083905060008060005b7f000000000000000000000000000000000000000000000000000000000000000063ffffffff168163ffffffff1610156110e7576000600286610fb8919061218a565b63ffffffff1614156110685783925060028163ffffffff1681548110611007577f4e487b7100000000000000000000000000000000000000000000000000000000600052603260045260246000fd5b906000526020600020015491508360018263ffffffff1681548110611055577f4e487b7100000000000000000000000000000000000000000000000000000000600052603260045260246000fd5b90600052602060002001819055506110b9565b60018163ffffffff16815481106110a8577f4e487b7100000000000000000000000000000000000000000000000000000000600052603260045260246000fd5b906000526020600020015492508391505b6110c38383610610565b93506002856110d29190611e29565b945080806110df9061215d565b915050610f75565b5060646001600360009054906101000a900463ffffffff166111099190611def565b611113919061218a565b600360006101000a81548163ffffffff021916908363ffffffff160217905550826004600360009054906101000a900463ffffffff1663ffffffff1660648110611186577f4e487b7100000000000000000000000000000000000000000000000000000000600052603260045260246000fd5b01819055506001600360049054906101000a900463ffffffff166111aa9190611faf565b945050505050919050565b60695434146111f9576040517f08c379a00000000000000000000000000000000000000000000000000000000081526004016111f090611be5565b60405180910390fd5b565b6000341461123e576040517f08c379a000000000000000000000000000000000000000000000000000000000815260040161123590611b05565b60405180910390fd5b60008173ffffffffffffffffffffffffffffffffffffffff16606954604051611266906119f2565b60006040518083038185875af1925050503d80600081146112a3576040519150601f19603f3d011682016040523d82523d6000602084013e6112a8565b606091505b50509050806112ec576040517f08c379a00000000000000000000000000000000000000000000000000000000081526004016112e390611b65565b60405180910390fd5b5050565b60006113036112fe84611ce9565b611cc4565b9050808285604086028201111561131957600080fd5b60005b85811015611349578161132f88826113f2565b84526020840193506040830192505060018101905061131c565b5050509392505050565b600061136661136184611d0f565b611cc4565b9050808285602086028201111561137c57600080fd5b60005b858110156113ac57816113928882611478565b84526020840193506020830192505060018101905061137f565b5050509392505050565b6000813590506113c58161255c565b92915050565b600082601f8301126113dc57600080fd5b60026113e98482856112f0565b91505092915050565b600082601f83011261140357600080fd5b6002611410848285611353565b91505092915050565b60008083601f84011261142b57600080fd5b8235905067ffffffffffffffff81111561144457600080fd5b60208301915083602082028301111561145c57600080fd5b9250929050565b60008151905061147281612573565b92915050565b6000813590506114878161258a565b92915050565b60008151905061149c8161258a565b92915050565b60008060008060008061016087890312156114bc57600080fd5b60006114ca89828a016113f2565b96505060406114db89828a016113cb565b95505060c06114ec89828a016113f2565b9450506101006114fe89828a01611478565b93505061012061151089828a01611478565b92505061014061152289828a016113b6565b9150509295509295509295565b6000806020838503121561154257600080fd5b600083013567ffffffffffffffff81111561155c57600080fd5b61156885828601611419565b92509250509250929050565b60006020828403121561158657600080fd5b600061159484828501611463565b91505092915050565b6000602082840312156115af57600080fd5b60006115bd84828501611478565b91505092915050565b6000602082840312156115d857600080fd5b60006115e68482850161148d565b91505092915050565b6000806040838503121561160257600080fd5b600061161085828601611478565b925050602061162185828601611478565b9150509250929050565b60006116378383611737565b60408301905092915050565b600061164f83836117e5565b60208301905092915050565b600061166783836119c5565b60208301905092915050565b61167c8161203b565b82525050565b61168b81611d59565b6116958184611da1565b92506116a082611d35565b8060005b838110156116d15781516116b8878261162b565b96506116c383611d7a565b9250506001810190506116a4565b505050505050565b60006116e482611d64565b6116ee8185611dac565b93506116f983611d3f565b8060005b8381101561172a5781516117118882611643565b975061171c83611d87565b9250506001810190506116fd565b5085935050505092915050565b61174081611d6f565b61174a8184611dbd565b925061175582611d4f565b8060005b8381101561178657815161176d878261165b565b965061177883611d94565b925050600181019050611759565b505050505050565b61179781611d6f565b6117a18184611dc8565b92506117ac82611d4f565b8060005b838110156117dd5781516117c4878261165b565b96506117cf83611d94565b9250506001810190506117b0565b505050505050565b6117ee81611ff5565b82525050565b6117fd81611ff5565b82525050565b61180c8161204d565b82525050565b61181b81612071565b82525050565b600061182e603383611dde565b915061183982612266565b604082019050919050565b6000611851602f83611dde565b915061185c826122b5565b604082019050919050565b6000611874602883611dde565b915061187f82612304565b604082019050919050565b6000611897602f83611dde565b91506118a282612353565b604082019050919050565b60006118ba602083611dde565b91506118c5826123a2565b602082019050919050565b60006118dd602183611dde565b91506118e8826123cb565b604082019050919050565b6000611900602683611dde565b915061190b8261241a565b604082019050919050565b6000611923603f83611dde565b915061192e82612469565b604082019050919050565b6000611946600083611dd3565b9150611951826124b8565b600082019050919050565b6000611969601d83611dde565b9150611974826124bb565b602082019050919050565b600061198c601f83611dde565b9150611997826124e4565b602082019050919050565b60006119af602183611dde565b91506119ba8261250d565b604082019050919050565b6119ce81612021565b82525050565b6119dd81612021565b82525050565b6119ec8161202b565b82525050565b60006119fd82611939565b9150819050919050565b6000604082019050611a1c6000830185611673565b611a2960208301846119d4565b9392505050565b60006020820190508181036000830152611a4a81846116d9565b905092915050565b6000604082019050611a67600083018461178e565b92915050565b600061014082019050611a83600083018761178e565b611a906040830186611682565b611a9d60c083018561178e565b611aab61010083018461178e565b95945050505050565b6000602082019050611ac960008301846117f4565b92915050565b6000602082019050611ae46000830184611803565b92915050565b6000602082019050611aff6000830184611812565b92915050565b60006020820190508181036000830152611b1e81611821565b9050919050565b60006020820190508181036000830152611b3e81611844565b9050919050565b60006020820190508181036000830152611b5e81611867565b9050919050565b60006020820190508181036000830152611b7e8161188a565b9050919050565b60006020820190508181036000830152611b9e816118ad565b9050919050565b60006020820190508181036000830152611bbe816118d0565b9050919050565b60006020820190508181036000830152611bde816118f3565b9050919050565b60006020820190508181036000830152611bfe81611916565b9050919050565b60006020820190508181036000830152611c1e8161195c565b9050919050565b60006020820190508181036000830152611c3e8161197f565b9050919050565b60006020820190508181036000830152611c5e816119a2565b9050919050565b6000602082019050611c7a60008301846119d4565b92915050565b6000602082019050611c9560008301846119e3565b92915050565b6000604082019050611cb060008301856119e3565b611cbd60208301846119d4565b9392505050565b6000611cce611cdf565b9050611cda82826120e3565b919050565b6000604051905090565b600067ffffffffffffffff821115611d0457611d03612219565b5b602082029050919050565b600067ffffffffffffffff821115611d2a57611d29612219565b5b602082029050919050565b6000819050919050565b6000819050602082019050919050565b6000819050919050565b600060029050919050565b600081519050919050565b600060029050919050565b6000602082019050919050565b6000602082019050919050565b6000602082019050919050565b600081905092915050565b600082825260208201905092915050565b600081905092915050565b600081905092915050565b600081905092915050565b600082825260208201905092915050565b6000611dfa8261202b565b9150611e058361202b565b92508263ffffffff03821115611e1e57611e1d6121bb565b5b828201905092915050565b6000611e348261202b565b9150611e3f8361202b565b925082611e4f57611e4e6121ea565b5b828204905092915050565b6000808291508390505b6001851115611ea457808604811115611e8057611e7f6121bb565b5b6001851615611e8f5780820291505b8081029050611e9d85612259565b9450611e64565b94509492505050565b6000611eb88261202b565b9150611ec38361202b565b9250611ed463ffffffff8484611edc565b905092915050565b600082611eec5760019050611fa8565b81611efa5760009050611fa8565b8160018114611f105760028114611f1a57611f49565b6001915050611fa8565b60ff841115611f2c57611f2b6121bb565b5b8360020a915084821115611f4357611f426121bb565b5b50611fa8565b5060208310610133831016604e8410600b8410161715611f7e5782820a905083811115611f7957611f786121bb565b5b611fa8565b611f8b8484846001611e5a565b92509050818404811115611fa257611fa16121bb565b5b81810290505b9392505050565b6000611fba8261202b565b9150611fc58361202b565b925082821015611fd857611fd76121bb565b5b828203905092915050565b6000611fee82612001565b9050919050565b60008115159050919050565b600073ffffffffffffffffffffffffffffffffffffffff82169050919050565b6000819050919050565b600063ffffffff82169050919050565b600061204682612095565b9050919050565b60006120588261205f565b9050919050565b600061206a82612001565b9050919050565b600061207c82612083565b9050919050565b600061208e82612001565b9050919050565b60006120a0826120a7565b9050919050565b60006120b282612001565b9050919050565b60006120c48261202b565b915060008214156120d8576120d76121bb565b5b600182039050919050565b6120ec82612248565b810181811067ffffffffffffffff8211171561210b5761210a612219565b5b80604052505050565b600061211f82612021565b91507fffffffffffffffffffffffffffffffffffffffffffffffffffffffffffffffff821415612152576121516121bb565b5b600182019050919050565b60006121688261202b565b915063ffffffff82141561217f5761217e6121bb565b5b600182019050919050565b60006121958261202b565b91506121a08361202b565b9250826121b0576121af6121ea565b5b828206905092915050565b7f4e487b7100000000000000000000000000000000000000000000000000000000600052601160045260246000fd5b7f4e487b7100000000000000000000000000000000000000000000000000000000600052601260045260246000fd5b7f4e487b7100000000000000000000000000000000000000000000000000000000600052604160045260246000fd5b6000601f19601f8301169050919050565b60008160011c9050919050565b7f4d697875703a204d6573736167652076616c756520697320737570706f73656460008201527f20746f206265207a65726f20666f722045544800000000000000000000000000602082015250565b7f4d65726b6c6520747265652069732066756c6c2e204e6f206d6f7265206c656160008201527f66732063616e2062652061646465640000000000000000000000000000000000602082015250565b7f4d697875703a2054686520636f6d6d69746d656e7420686173206265656e207360008201527f75626d6974746564000000000000000000000000000000000000000000000000602082015250565b7f4d697875703a207061796d656e7420746f205f726563697069656e742077617360008201527f206e6f74207375636365737366756c0000000000000000000000000000000000602082015250565b7f5f6c6566742073686f756c6420626520696e7369646520746865206669656c64600082015250565b7f5f72696768742073686f756c6420626520696e7369646520746865206669656c60008201527f6400000000000000000000000000000000000000000000000000000000000000602082015250565b7f4d697875703a20546865206e6f74652068617320616c7265616479206265656e60008201527f207370656e740000000000000000000000000000000000000000000000000000602082015250565b7f4d697875703a20506c656173652073656e6420606d697844656e6f6d696e617460008201527f696f6e602045544820616c6f6e672077697468207472616e73616374696f6e00602082015250565b50565b7f4d697875703a20496e76616c69642077697468647261772070726f6f66000000600082015250565b7f5265656e7472616e637947756172643a207265656e7472616e742063616c6c00600082015250565b7f4d697875703a206d65726b6c6520726f6f7420646f6573206e6f74206578697360008201527f7400000000000000000000000000000000000000000000000000000000000000602082015250565b61256581611fe3565b811461257057600080fd5b50565b61257c81611ff5565b811461258757600080fd5b50565b61259381612021565b811461259e57600080fd5b5056fea264697066735822122077e532e36a532411bd504951111f34241c20a24c065785f65475b1f04efd2bbf64736f6c63430008040033",
  "linkReferences": {},
  "deployedLinkReferences": {}
}